{
  "address": "0x2b7C01904C5D84EEF811d4D557F08edd89016F92",
  "abi": [
    {
      "inputs": [],
      "name": "ItemNotAvailable",
      "type": "error"
    },
    {
      "inputs": [],
      "name": "ItemNotSoldAtStore",
      "type": "error"
    },
    {
      "inputs": [
        {
          "internalType": "address",
          "name": "_user",
          "type": "address"
        },
        {
          "internalType": "address",
          "name": "_contractOwner",
          "type": "address"
        }
      ],
      "name": "NotContractOwner",
      "type": "error"
    },
    {
      "inputs": [],
      "name": "UnderageCustomer",
      "type": "error"
    },
    {
      "anonymous": false,
      "inputs": [
        {
          "indexed": false,
          "internalType": "uint256",
          "name": "idx",
          "type": "uint256"
        },
        {
          "indexed": false,
          "internalType": "string",
          "name": "name",
          "type": "string"
        }
      ],
      "name": "AlcoholAdded",
      "type": "event"
    },
    {
      "inputs": [
        {
          "internalType": "string",
          "name": "_newBeer",
          "type": "string"
        }
      ],
      "name": "addAlcohol",
      "outputs": [],
      "stateMutability": "nonpayable",
      "type": "function"
    },
    {
      "inputs": [
        {
          "internalType": "uint256",
          "name": "_idx",
          "type": "uint256"
        },
        {
          "internalType": "uint256",
          "name": "age",
          "type": "uint256"
        }
      ],
      "name": "buyAlcohol",
      "outputs": [],
      "stateMutability": "nonpayable",
      "type": "function"
    },
    {
      "inputs": [],
      "name": "getBeerStoreItems",
      "outputs": [
        {
          "internalType": "string[]",
          "name": "itemList",
          "type": "string[]"
        }
      ],
      "stateMutability": "view",
      "type": "function"
    },
    {
      "inputs": [
        {
          "internalType": "uint256",
          "name": "_minAge",
          "type": "uint256"
        }
      ],
      "name": "setMinAge",
      "outputs": [],
      "stateMutability": "nonpayable",
      "type": "function"
    }
  ],
  "transactionHash": "0x5cb6e8efc6b890830b2249810a818eb2b765ad98beb126ae34c7fdbec7a1cf69",
  "args": [],
  "numDeployments": 1,
  "solcInputHash": "0217810ba6203fb47863624cdcfce3e9",
  "bytecode": "0x608060405234801561001057600080fd5b506108b7806100206000396000f3fe608060405234801561001057600080fd5b506004361061004c5760003560e01c80630d66b8e814610051578063bdd33bf014610066578063c677efc214610084578063d34ff9c314610097575b600080fd5b61006461005f366004610683565b6100c9565b005b61006e6100de565b60405161007b9190610734565b60405180910390f35b6100646100923660046107cf565b6100ee565b6100646100a53660046107f1565b7ff352ba126091b494126fef2892c8da20801fd26146bd0cb5611cfe00f6dc924a55565b6100d1610105565b6100db813061018f565b50565b60606100e93061026f565b905090565b6100f781610422565b6101018230610464565b5050565b7fc8fcad8db84d3cc18b4c41d551ea0ee66dd599cde068d998e57d5e09332c131c600301546001600160a01b0316331461018d577fc8fcad8db84d3cc18b4c41d551ea0ee66dd599cde068d998e57d5e09332c131f5460408051600162bed83560e01b031981523360048201526001600160a01b039092166024830152519081900360440190fd5b565b7f3e1203f9e3017e885f293b2817c8cf13c3f1a69d3fb206a868b5d52ad69ac93e805460010180825560009081527f3e1203f9e3017e885f293b2817c8cf13c3f1a69d3fb206a868b5d52ad69ac93f6020908152604090912084516101f6928601906105d4565b5081600382016000610206845490565b815260200190815260200160002060006101000a8154816001600160a01b0302191690836001600160a01b03160217905550600181600201600061024b846000015490565b81526020810191909152604001600020805460ff1916911515919091179055505050565b7f3e1203f9e3017e885f293b2817c8cf13c3f1a69d3fb206a868b5d52ad69ac93e8054606091908067ffffffffffffffff8111156102af576102af61066d565b6040519080825280602002602001820160405280156102e257816020015b60608152602001906001900390816102cd5790505b509250600060015b828111610419576001600160a01b038616158061033d5750600081815260028501602052604090205460ff16801561033d575060008181526003850160205260409020546001600160a01b038781169116145b156104075760008181526001850160205260409020805461035d9061080a565b80601f01602080910402602001604051908101604052809291908181526020018280546103899061080a565b80156103d65780601f106103ab576101008083540402835291602001916103d6565b820191906000526020600020905b8154815290600101906020018083116103b957829003601f168201915b50505050508583815181106103ed576103ed610844565b602002602001018190525081806104039061085a565b9250505b806104118161085a565b9150506102ea565b50505050919050565b7ff352ba126091b494126fef2892c8da20801fd26146bd0cb5611cfe00f6dc924a548110156100db576040516302e3d90b60e01b815260040160405180910390fd5b61046e818361052d565b61047782610586565b60008281527f3e1203f9e3017e885f293b2817c8cf13c3f1a69d3fb206a868b5d52ad69ac9426020526040812080547f3e1203f9e3017e885f293b2817c8cf13c3f1a69d3fb206a868b5d52ad69ac93e929091906104d48361085a565b9091555050336000908152600582016020908152604080832086845290915281208054916105018361085a565b909155505033600090815260068201602052604081208054916105238361085a565b9190505550505050565b60008181527f3e1203f9e3017e885f293b2817c8cf13c3f1a69d3fb206a868b5d52ad69ac94160205260409020546001600160a01b0383811691161461010157604051630306e2d560e31b815260040160405180910390fd5b60008181527f3e1203f9e3017e885f293b2817c8cf13c3f1a69d3fb206a868b5d52ad69ac940602052604090205460ff166100db57604051633c1c65a160e21b815260040160405180910390fd5b8280546105e09061080a565b90600052602060002090601f0160209004810192826106025760008555610648565b82601f1061061b57805160ff1916838001178555610648565b82800160010185558215610648579182015b8281111561064857825182559160200191906001019061062d565b50610654929150610658565b5090565b5b808211156106545760008155600101610659565b634e487b7160e01b600052604160045260246000fd5b60006020828403121561069557600080fd5b813567ffffffffffffffff808211156106ad57600080fd5b818401915084601f8301126106c157600080fd5b8135818111156106d3576106d361066d565b604051601f8201601f19908116603f011681019083821181831017156106fb576106fb61066d565b8160405282815287602084870101111561071457600080fd5b826020860160208301376000928101602001929092525095945050505050565b6000602080830181845280855180835260408601915060408160051b87010192508387016000805b838110156107c157888603603f1901855282518051808852835b81811015610791578281018a01518982018b01528901610776565b818111156107a157848a838b0101525b50601f01601f19169690960187019550938601939186019160010161075c565b509398975050505050505050565b600080604083850312156107e257600080fd5b50508035926020909101359150565b60006020828403121561080357600080fd5b5035919050565b600181811c9082168061081e57607f821691505b60208210810361083e57634e487b7160e01b600052602260045260246000fd5b50919050565b634e487b7160e01b600052603260045260246000fd5b60006001820161087a57634e487b7160e01b600052601160045260246000fd5b506001019056fea2646970667358221220f2d4c6ad5178218403cb2362e675ae31c30549a29baeeaf3aec79d194cf1683064736f6c634300080d0033",
  "devdoc": {
    "kind": "dev",
    "methods": {},
    "version": 1
  },
  "userdoc": {
    "kind": "user",
    "methods": {},
    "version": 1
  },
  "storageLayout": {
    "storage": [],
    "types": null
  }
}