{
  "address": "0x0FC911B3Abb7F26C5c26723dA199367Dc6c012e1",
  "abi": [
    {
      "inputs": [],
      "name": "ItemNotAvailable",
      "type": "error"
    },
    {
      "inputs": [],
      "name": "ItemNotSoldAtStore",
      "type": "error"
    },
    {
      "inputs": [
        {
          "internalType": "address",
          "name": "_user",
          "type": "address"
        },
        {
          "internalType": "address",
          "name": "_contractOwner",
          "type": "address"
        }
      ],
      "name": "NotContractOwner",
      "type": "error"
    },
    {
      "inputs": [],
      "name": "UnderageCustomer",
      "type": "error"
    },
    {
      "inputs": [],
      "name": "UnderageCustomer",
      "type": "error"
    },
    {
      "anonymous": false,
      "inputs": [
        {
          "indexed": false,
          "internalType": "uint256",
          "name": "idx",
          "type": "uint256"
        },
        {
          "indexed": false,
          "internalType": "string",
          "name": "name",
          "type": "string"
        }
      ],
      "name": "AlcoholAdded",
      "type": "event"
    },
    {
      "inputs": [
        {
          "internalType": "string",
          "name": "_newBeer",
          "type": "string"
        }
      ],
      "name": "addAlcohol",
      "outputs": [],
      "stateMutability": "nonpayable",
      "type": "function"
    },
    {
      "inputs": [
        {
          "internalType": "string",
          "name": "_newMedicine",
          "type": "string"
        }
      ],
      "name": "addMedicine",
      "outputs": [],
      "stateMutability": "nonpayable",
      "type": "function"
    },
    {
      "inputs": [
        {
          "internalType": "uint256",
          "name": "_idx",
          "type": "uint256"
        },
        {
          "internalType": "uint256",
          "name": "age",
          "type": "uint256"
        }
      ],
      "name": "buyAlcohol",
      "outputs": [],
      "stateMutability": "nonpayable",
      "type": "function"
    },
    {
      "inputs": [
        {
          "internalType": "uint256",
          "name": "_idx",
          "type": "uint256"
        },
        {
          "internalType": "bool",
          "name": "hasPrescription",
          "type": "bool"
        }
      ],
      "name": "buyMedicine",
      "outputs": [],
      "stateMutability": "nonpayable",
      "type": "function"
    },
    {
      "inputs": [],
      "name": "getBeerStoreItems",
      "outputs": [
        {
          "internalType": "string[]",
          "name": "itemList",
          "type": "string[]"
        }
      ],
      "stateMutability": "view",
      "type": "function"
    },
    {
      "inputs": [
        {
          "internalType": "uint256",
          "name": "_minAge",
          "type": "uint256"
        }
      ],
      "name": "setMinAge",
      "outputs": [],
      "stateMutability": "nonpayable",
      "type": "function"
    }
  ],
  "transactionHash": "0x3ec039640250a09caf2d5f836f9901ba91af95d627e8de4b7c2b4a8802684c31",
  "args": [],
  "numDeployments": 1,
  "solcInputHash": "0217810ba6203fb47863624cdcfce3e9",
  "bytecode": "0x608060405234801561001057600080fd5b5061096b806100206000396000f3fe608060405234801561001057600080fd5b50600436106100625760003560e01c80630d66b8e814610067578063108befb51461007c57806360234f1014610067578063bdd33bf01461008f578063c677efc2146100ad578063d34ff9c3146100c0575b600080fd5b61007a610075366004610702565b6100f2565b005b61007a61008a3660046107b3565b610107565b61009761011e565b6040516100a491906107e8565b60405180910390f35b61007a6100bb366004610883565b61012e565b61007a6100ce3660046108a5565b7ff352ba126091b494126fef2892c8da20801fd26146bd0cb5611cfe00f6dc924a55565b6100fa610137565b61010481306101c1565b50565b610110816102a1565b61011a82306102ee565b5050565b6060610129306103b7565b905090565b6101108161056a565b7fc8fcad8db84d3cc18b4c41d551ea0ee66dd599cde068d998e57d5e09332c131c600301546001600160a01b031633146101bf577fc8fcad8db84d3cc18b4c41d551ea0ee66dd599cde068d998e57d5e09332c131f5460408051600162bed83560e01b031981523360048201526001600160a01b039092166024830152519081900360440190fd5b565b7f3e1203f9e3017e885f293b2817c8cf13c3f1a69d3fb206a868b5d52ad69ac93e805460010180825560009081527f3e1203f9e3017e885f293b2817c8cf13c3f1a69d3fb206a868b5d52ad69ac93f60209081526040909120845161022892860190610653565b5081600382016000610238845490565b815260200190815260200160002060006101000a8154816001600160a01b0302191690836001600160a01b03160217905550600181600201600061027d846000015490565b81526020810191909152604001600020805460ff1916911515919091179055505050565b7ff352ba126091b494126fef2892c8da20801fd26146bd0cb5611cfe00f6dc924a5460ff1680156102d0575080155b15610104576040516302e3d90b60e01b815260040160405180910390fd5b6102f881836105ac565b61030182610605565b60008281527f3e1203f9e3017e885f293b2817c8cf13c3f1a69d3fb206a868b5d52ad69ac9426020526040812080547f3e1203f9e3017e885f293b2817c8cf13c3f1a69d3fb206a868b5d52ad69ac93e9290919061035e836108be565b90915550503360009081526005820160209081526040808320868452909152812080549161038b836108be565b909155505033600090815260068201602052604081208054916103ad836108be565b9190505550505050565b7f3e1203f9e3017e885f293b2817c8cf13c3f1a69d3fb206a868b5d52ad69ac93e8054606091908067ffffffffffffffff8111156103f7576103f76106ec565b60405190808252806020026020018201604052801561042a57816020015b60608152602001906001900390816104155790505b509250600060015b828111610561576001600160a01b03861615806104855750600081815260028501602052604090205460ff168015610485575060008181526003850160205260409020546001600160a01b038781169116145b1561054f576000818152600185016020526040902080546104a5906108e5565b80601f01602080910402602001604051908101604052809291908181526020018280546104d1906108e5565b801561051e5780601f106104f35761010080835404028352916020019161051e565b820191906000526020600020905b81548152906001019060200180831161050157829003601f168201915b50505050508583815181106105355761053561091f565b6020026020010181905250818061054b906108be565b9250505b80610559816108be565b915050610432565b50505050919050565b7ff352ba126091b494126fef2892c8da20801fd26146bd0cb5611cfe00f6dc924a54811015610104576040516302e3d90b60e01b815260040160405180910390fd5b60008181527f3e1203f9e3017e885f293b2817c8cf13c3f1a69d3fb206a868b5d52ad69ac94160205260409020546001600160a01b0383811691161461011a57604051630306e2d560e31b815260040160405180910390fd5b60008181527f3e1203f9e3017e885f293b2817c8cf13c3f1a69d3fb206a868b5d52ad69ac940602052604090205460ff1661010457604051633c1c65a160e21b815260040160405180910390fd5b82805461065f906108e5565b90600052602060002090601f01602090048101928261068157600085556106c7565b82601f1061069a57805160ff19168380011785556106c7565b828001600101855582156106c7579182015b828111156106c75782518255916020019190600101906106ac565b506106d39291506106d7565b5090565b5b808211156106d357600081556001016106d8565b634e487b7160e01b600052604160045260246000fd5b60006020828403121561071457600080fd5b813567ffffffffffffffff8082111561072c57600080fd5b818401915084601f83011261074057600080fd5b813581811115610752576107526106ec565b604051601f8201601f19908116603f0116810190838211818310171561077a5761077a6106ec565b8160405282815287602084870101111561079357600080fd5b826020860160208301376000928101602001929092525095945050505050565b600080604083850312156107c657600080fd5b82359150602083013580151581146107dd57600080fd5b809150509250929050565b6000602080830181845280855180835260408601915060408160051b87010192508387016000805b8381101561087557888603603f1901855282518051808852835b81811015610845578281018a01518982018b0152890161082a565b8181111561085557848a838b0101525b50601f01601f191696909601870195509386019391860191600101610810565b509398975050505050505050565b6000806040838503121561089657600080fd5b50508035926020909101359150565b6000602082840312156108b757600080fd5b5035919050565b6000600182016108de57634e487b7160e01b600052601160045260246000fd5b5060010190565b600181811c908216806108f957607f821691505b60208210810361091957634e487b7160e01b600052602260045260246000fd5b50919050565b634e487b7160e01b600052603260045260246000fdfea2646970667358221220ff8074ec3efa3bf6cbcac33b82c4aca824c1526174387a1afde7a65f94a69adf64736f6c634300080d0033",
  "devdoc": {
    "kind": "dev",
    "methods": {},
    "version": 1
  },
  "userdoc": {
    "kind": "user",
    "methods": {},
    "version": 1
  },
  "storageLayout": {
    "storage": [],
    "types": null
  }
}