{
  "address": "0xE7EC7F742040752b1bd15ED7eb83D2c9762EEDbd",
  "abi": [
    {
      "inputs": [],
      "name": "getAddr",
      "outputs": [
        {
          "internalType": "address",
          "name": "myAddr",
          "type": "address"
        }
      ],
      "stateMutability": "view",
      "type": "function"
    },
    {
      "inputs": [],
      "name": "getItemCount",
      "outputs": [
        {
          "internalType": "uint256",
          "name": "count",
          "type": "uint256"
        }
      ],
      "stateMutability": "view",
      "type": "function"
    },
    {
      "inputs": [],
      "name": "getItems",
      "outputs": [
        {
          "internalType": "string[]",
          "name": "itemList",
          "type": "string[]"
        }
      ],
      "stateMutability": "view",
      "type": "function"
    },
    {
      "inputs": [
        {
          "internalType": "address",
          "name": "_customer",
          "type": "address"
        },
        {
          "internalType": "uint256",
          "name": "_idx",
          "type": "uint256"
        }
      ],
      "name": "getItemsSoldToUser",
      "outputs": [
        {
          "internalType": "uint256",
          "name": "itemCount",
          "type": "uint256"
        }
      ],
      "stateMutability": "view",
      "type": "function"
    },
    {
      "inputs": [
        {
          "internalType": "uint256",
          "name": "_idx",
          "type": "uint256"
        }
      ],
      "name": "getSalesPerItem",
      "outputs": [
        {
          "internalType": "uint256",
          "name": "itemCount",
          "type": "uint256"
        }
      ],
      "stateMutability": "view",
      "type": "function"
    }
  ],
  "transactionHash": "0x2e3792a46cfa9c6b97d995d80d9b19c261ba51fe5fd5ea76012cc2003717ebf2",
  "args": [],
  "numDeployments": 1,
  "solcInputHash": "0217810ba6203fb47863624cdcfce3e9",
  "bytecode": "0x608060405234801561001057600080fd5b506104cb806100206000396000f3fe608060405234801561001057600080fd5b50600436106100575760003560e01c8063199513c11461005c578063410d59cc146100ae5780637749cf23146100c3578063a74c2bb6146100cb578063c4a03f59146100d9575b600080fd5b61009b61006a36600461031c565b60009081527f3e1203f9e3017e885f293b2817c8cf13c3f1a69d3fb206a868b5d52ad69ac942602052604090205490565b6040519081526020015b60405180910390f35b6100b661012e565b6040516100a59190610335565b61009b61013f565b6040513081526020016100a5565b61009b6100e73660046103d0565b6001600160a01b039190911660009081527f3e1203f9e3017e885f293b2817c8cf13c3f1a69d3fb206a868b5d52ad69ac94360209081526040808320938352929052205490565b606061013a6000610169565b905090565b600061013a7f3e1203f9e3017e885f293b2817c8cf13c3f1a69d3fb206a868b5d52ad69ac93e5490565b7f3e1203f9e3017e885f293b2817c8cf13c3f1a69d3fb206a868b5d52ad69ac93e8054606091908067ffffffffffffffff8111156101a9576101a9610408565b6040519080825280602002602001820160405280156101dc57816020015b60608152602001906001900390816101c75790505b509250600060015b828111610313576001600160a01b03861615806102375750600081815260028501602052604090205460ff168015610237575060008181526003850160205260409020546001600160a01b038781169116145b15610301576000818152600185016020526040902080546102579061041e565b80601f01602080910402602001604051908101604052809291908181526020018280546102839061041e565b80156102d05780601f106102a5576101008083540402835291602001916102d0565b820191906000526020600020905b8154815290600101906020018083116102b357829003601f168201915b50505050508583815181106102e7576102e7610458565b602002602001018190525081806102fd9061046e565b9250505b8061030b8161046e565b9150506101e4565b50505050919050565b60006020828403121561032e57600080fd5b5035919050565b6000602080830181845280855180835260408601915060408160051b87010192508387016000805b838110156103c257888603603f1901855282518051808852835b81811015610392578281018a01518982018b01528901610377565b818111156103a257848a838b0101525b50601f01601f19169690960187019550938601939186019160010161035d565b509398975050505050505050565b600080604083850312156103e357600080fd5b82356001600160a01b03811681146103fa57600080fd5b946020939093013593505050565b634e487b7160e01b600052604160045260246000fd5b600181811c9082168061043257607f821691505b60208210810361045257634e487b7160e01b600052602260045260246000fd5b50919050565b634e487b7160e01b600052603260045260246000fd5b60006001820161048e57634e487b7160e01b600052601160045260246000fd5b506001019056fea2646970667358221220db641592bdc264fbe17937a1409069660005655f5f2248b10d95aaae6a40f5b764736f6c634300080d0033",
  "devdoc": {
    "kind": "dev",
    "methods": {},
    "version": 1
  },
  "userdoc": {
    "kind": "user",
    "methods": {},
    "version": 1
  },
  "storageLayout": {
    "storage": [],
    "types": null
  }
}